05230399123456789SAMPLE ISD     SCHOOL1        StudentLast1   StuFirst1 M100000000M01012014 000100B060    000000    00    111111111         03 1234567899800FAKEAA000                    0   01000000000                                             00    00000  0 000         00000 0  00  00                                                               SS                                                17091H261444ESO       010                         1111111111111111111111112222222222222222            D+++++++DCP+D++++B+A+++BB+C+BAB+++C++B++            BADCBCDAABACBACACAABADCAADAADBCADDABCADD            670L 04700                                                                                                                                      050703031H181423ESO       010                     123243232142132321213412122121                          D+++PCAAA+A+BPAB+PB+++BC+PA++C                          ADDBABDBBCDADABAAAACAACDBABCAB                          049535Q                                          111121111112121112211211121111          011110000102010011011200110110               1111111111211111111111121111111111111111     0111111100110111101011100101000111011011                                                                                                                                                                                                                                                                                                                                                                                                                                                                                                                                                                                                                                                                                                                                                                                                                                                                                                                                                                                                                                                                                                                                                                                                                                                                                                                                                                                                                                                                                                                                                                                                                                                                                                                                                                                 670L                                                   535Q                                                                                                                                                                                         3                                          FAKEOPPKEY1A                       FAKEOPPKEY1B                                                                                                                                   00  00                                                                                                                                                                                                                                                                                                                                                                                                                                                                                                                                                                                                                                                   .
05230399123456789SAMPLE ISD     SCHOOL1        StudentLast2   StuFirst2 M200000000M02022013 000100B160    000001    01    222222222         03 1234567899806FAKEBB000                    1   02000000000                                             00    00000  1 010         00000 1  10  00                                                               SS                                                14041L181345ESO       010                         1111111111111111111111112222222222222222            +++D+BB+B+B+A+++ACD++C+PBAD++CDB+CBC+DCC            BADCBCDAABACBACACAABADCAADAADBCADDABCADD            520L 02500                                                                                                                                      060103041L141360ESO       010                     123243232142132321213412122121                          +A+A+DACAB+B+P+BDBB++PDA+BC+B+                          ADDBABDBBCDADABAAAACAACDBABCAB                          032455Q                                          111121111112121112211211121111          101020000010111000011100100101               1111111111211111111111121111111111111111     1110100101010111000110110001100010001000                                                                                                                                                                                                                                                                                                                                                                                                                                                                                                                                                                                                                                                                                                                                                                                                                                                                                                                                                                                                                                                                                                                                                                                                                                                                                                                                                                                                                                                                                                                                                                                                                                                                                                                                                                                 520L                                                   455Q                                                                                                                                                                                         3                                          FAKEOPPKEY2A                       FAKEOPPKEY2B                                                                                                                                   00  00                                                                                                                                                                                                                                                                                                                                                                                                                                                                                                                                                                                                                                                   .
05230399123456789SAMPLE ISD     SCHOOL1        StudentLast3   StuFirst3 M300000000M03032013 000100B160    000010    01    333333333         03 1234567899800FAKECC000                    0   03000000000                                             00    00000  1 010         00000 0  10  01                                                               SS                                                03010L041047ESO       000                         1111111111111111111111112222222222222222            CC+BCBADDCBBDBD+DCDCCABPBABBBCDDA+DCBBAC            BADCBCDAABACBACACAABADCAADAADBCADDABCADD            70L  00000                                                                                                                                      010503020H111309ESO       000                     123243232142132321213412122121                          +++CPD+C+B+PB+DBDBBBDBDADBAB+D                          ADDBABDBBCDADABAAAACAACDBABCAB                          018390Q                                          111121111112121112211211121111          111010101011020000000000000010               1111111111211111111111121111111111111111     0010000000000001000000010000000001000000                                                                                                                                                                                                                                                                                                                                                                                                                                                                                                                                                                                                                                                                                                                                                                                                                                                                                                                                                                                                                                                                                                                                                                                                                                                                                                                                                                                                                                                                                                                                                                                                                                                                                                                                                                                 70L                                                    390Q                                                                                                                                                                                         3                                          FAKEOPPKEY3A                       FAKEOPPKEY3B                                                                                                                                   00  00                                                                                                                                                                                                                                                                                                                                                                                                                                                                                                                                                                                                                                                   .
05230399123456789SAMPLE ISD     SCHOOL1        StudentLast4   StuFirst4 M400000000F04042014 100100H160    C02001    01    444444444         03 1234567899800FAKEDD000                    0   04000000000                                             00    00000  1 000         00000 1  00  00                                                               SS                                                05050L101213ESO       000                         1111111111111111111111112222222222222222            DBAAABCBCCPD+C+BACDABCD+BBD+C++DBCDA++CB            BADCBCDAABACBACACAABADCAADAADBCADDABCADD            320L 00600                                                                                                                                      030102030L091272ESO       000                     123243232142132321213412122121                          +BCAP+BD+ABBBPDBDBBAD+BA+BA+DC                          ADDBABDBBCDADABAAAACAACDBABCAB                          009345Q                                          111121111112121112211211121111          100011001000010000000200100100               1111111111211111111111121111111111111111     0000000000101010000000020001011000001100                                                                                                                                                                                                                                                                                                                                                                                                                                                                                                                                                                                                                                                                                                                                                                                                                                                                                                                                                                                                                                                                                                                                                                                                                                                                                                                                                                                                                                                                                                                                                                                                                                                                                                                                                                                 320L                                                   345Q                                                                                                                                                                                         3                                          FAKEOPPKEY4A                       FAKEOPPKEY4B                                                                                                                                   00  00                                                                                                                                                                                                                                                                                                                                                                                                                                                                                                                                                                                                                                                   .
05230399123456789SAMPLE ISD     SCHOOL1        StudentLast5   StuFirst5 M500000000F05052014 000100B160    000000    01    555555555         03 1234567899800FAKEEE000                    0   05000000000                                             00    00000  1 000         00100 1  00  00                                                               SS                                                16031L191359ESO       010                         1111111111111111111111112222222222222222            AC+B+++BB+++++D++DD+B++PBCBD++ABBCDA+BAC            BADCBCDAABACBACACAABADCAADAADBCADDABCADD            540L 02800                                                                                                                                      040501020H121327ESO       000                     123243232142132321213412122121                          C+++BCBCABAB+BABBB+BC++A+BD++D                          ADDBABDBBCDADABAAAACAACDBABCAB                          023415Q                                          111121111112121112211211121111          011100000000100000200210100110               1111111111211111111111121111111111111111     0010111001211101100101110000110000001000                                                                                                                                                                                                                                                                                                                                                                                                                                                                                                                                                                                                                                                                                                                                                                                                                                                                                                                                                                                                                                                                                                                                                                                                                                                                                                                                                                                                                                                                                                                                                                                                                                                                                                                                                                                 540L                                                   415Q                                                                                                                                                                                         3                                          FAKEOPPKEY5A                       FAKEOPPKEY5B                                                                                                                                   00  00                                                                                                                                                                                                                                                                                                                                                                                                                                                                                                                                                                                                                                                   .
